:020000040800F2
:10000000907B0220990200085F4B0008174100080E
:100010005D4B00080D050008595B0008000000005A
:10002000000000000000000000000000DD010008EA
:10003000F10500080000000031020008734E0008BE
:10004000B3020008B3020008B3020008B3020008BC
:10005000B3020008B3020008B3020008B3020008AC
:10006000B3020008B3020008B3020008B30200089C
:10007000B3020008B3020008B3020008B30200088C
:10008000B3020008B3020008B3020008B30200087C
:10009000B3020008B3020008B3020008B30200086C
:1000A000B3020008B3020008B3020008B30200085C
:1000B000714F0008B3020008B3020008B302000841
:1000C000B3020008B3020008B3020008B30200083C
:1000D000B3020008B3020008B3020008B30200082C
:1000E000B3020008B3020008B3020008B30200081C
:1000F000B3020008B3020008B3020008B30200080C
:10010000B3020008B3020008B3020008B3020008FB
:10011000B3020008B3020008B3020008B3020008EB
:10012000110500081D05000829050008350500080F
:1001300041050008B3020008B3020008B30200083A
:10014000B3020008B3020008B3020008B3020008BB
:10015000B3020008B3020008B3020008B3020008AB
:10016000B3020008B3020008B3020008B30200089B
:10017000B3020008B3020008B30200080000000048
:10018000B3020008B3020008B3020008B30200087B
:10019000B3020008B3020008B3020008B30200086B
:1001A0000000000000000000B3020008B3020008D5
:1001B000B3020008B3020008B3020008B30200084B
:1001C000B3020008B3020008DFF80CD000F088F892
:1001D000004800471F5F0008907B02202B4B1968E6
:1001E0000868B0E8F04F80F30988BFF36F8F4FF0D5
:1001F000000080F311887047000000000648006886
:10020000006880F3088862B661B6BFF34F8FBFF312
:100210006F8F00DF00BF00BF08ED00E0DFF80C00CB
:10022000016841F470010160704700BF88ED00E093
:10023000EFF30980BFF36F8F144B1A681EF0100F95
:1002400008BF20ED108A20E9F04F106008B44FF08D
:10025000500072B680F31188BFF34F8FBFF36F8FDA
:1002600062B606F0B3FB4FF0000080F3118808BCC3
:1002700019680868B0E8F04F1EF0100F08BFB0EC26
:10028000108A80F30988BFF36F8F70470000002049
:10029000EFF3058070470000064880470648004796
:1002A000FEE7FEE7FEE7FEE7FEE7FEE7FEE7FEE726
:1002B000FEE7FEE71D4F0008C901000840EA010300
:1002C0009B0703D009E008C9121F08C0042AFAD20C
:1002D00003E011F8013B00F8013B521EF9D27047D0
:1002E000064C074D06E0E06840F0010394E8070083
:1002F00098471034AC42F6D3FFF76AFF6C6D0008E4
:100300008C6D000810B50146806B026C12F0500F26
:1003100005D0806BC26C0846BDE810401047016CE8
:1003200041F40071016401688A6812F0405F17D1DE
:100330008269AAB9CA6A12F4700F02D08A6852059B
:100340000ED44A6822F020024A60016C21F48071C8
:100350000164016CC90403D4016C41F00101016422
:1003600000F03AFC10BD10B5806B40210164416C77
:1003700041F00401416400F031FC10BD10B5806B08
:1003800000F02BFC10BD000010B504464F486FF084
:100390007061D0F8042322F44032C0F80423D0F86E
:1003A000042363681A43C0F804232068426822F4D7
:1003B0008072426020682269436843EA02224260F8
:1003C0002068426822F0407242602068A368426858
:1003D0001A4342602068826822F4006282602068CA
:1003E000E36882681A438260A06AC8422068816814
:1003F00021F07061816020680DD0A26A816811438C
:1004000081602068816821F0405181602068E26A43
:100410008168114302E0816821F0405181602068C9
:10042000816821F0020181602068A169826842EA46
:1004300041018160206A00B3606A401E072804D928
:1004400023A04FF4C36105F098FB2068416841F494
:1004500000614160206841684FF4604221F46041CE
:100460004160206892FAA2F2616AB2FA82F34268AD
:10047000491E99400A43426004E02068416821F423
:10048000006141602068204AC16A21F47001C162A4
:100490002068A38BC16A02EB03521143C16220683A
:1004A000816821F4007181602068216B826842EAD2
:1004B000412181602068816821F480618160206829
:1004C0006169826842EA8121816010BD002001409B
:1004D0002E2E2F447269766572732F53544D33322A
:1004E000463778785F48414C5F4472697665722F71
:1004F0005372632F73746D3332663778785F686137
:100500006C5F6164632E63000000F0FFFEE7000093
:10051000014800F045BF0000303E0020014800F0D7
:100520003FBF0000C8410020014800F039BF000073
:1005300068410020014800F033BF0000903E0020D9
:10054000014800F02DBF0000084100200168182379
:10055000CAB2103AB2FBF3F2054B6FF30901032A5A
:100560009B5CC36500D9091D816508467047000082
:10057000346D000810B583694FF0C074826A01467B
:10058000002053B1B3F5005F15D072B1012A0CD031
:10059000022A0AD0032A09D104E01AB1012A06D09E
:1005A000022A03D1C96AC90100D5012010BDC96A58
:1005B000A142FAD010BD002AF7D0012AF2D0022AB7
:1005C000F3D0032AF3D010BD30B50468256825F4B4
:1005D00080252560046863608368402B036803D02E
:1005E00099600068C26030BD9A600068C16030BD2B
:1005F0007047000070B504000E464FF0000512D0A1
:10060000012C10D0022C0ED0032C0CD0042C0AD0BC
:10061000052C08D0062C06D0072C04D01BA040F2D5
:10062000B72105F0AAFA66B1012E2BD0022E26D0F2
:10063000032E04D04FF42E7114A005F09EFA4FF44F
:10064000407522487822016892FAA2F221F44071A2
:1006500001600168B2FA82F294402943016044F0DB
:100660000202016821F0F801016001681143016094
:10067000016841F480310160BFF34F8F70BD4FF4CA
:100680000075DEE74FF48075DBE700002E2E2F4467
:100690007269766572732F53544D333246377878CA
:1006A0005F48414C5F4472697665722F5372632FC5
:1006B00073746D3332663778785F68616C5F666C2F
:1006C0006173685F65782E6300000000103C024093
:1006D00070B504460D46A0F10060B0F5801F09D347
:1006E0000C482044B0F5846F04D30BA040F2F721EE
:1006F00005F043FA174A106820F440701060106843
:100700001060106840F0010010602570BFF34F8F3B
:1007100070BD000000100FE02E2E2F447269766528
:1007200072732F53544D3332463778785F48414CBB
:100730005F4472697665722F5372632F73746D33E1
:1007400032663778785F68616C5F666C6173682EBB
:1007500063000000103C024070B504461546A0F14D
:1007600000601E46B0F5801F09D30E482044B0F546
:10077000846F04D30CA040F29E2105F0FEF91949C4
:10078000086820F440700860086840F44070086011
:10079000086840F00100086025606660BFF34F8F75
:1007A00070BD000000100FE02E2E2F447269766598
:1007B00072732F53544D3332463778785F48414C2B
:1007C0005F4472697665722F5372632F73746D3351
:1007D00032663778785F68616C5F666C6173682E2B
:1007E00063000000103C024070B504460D46A0F1C5
:1007F0000060B0F5801F09D30D482044B0F5846F28
:1008000004D30CA040F2D92105F0B7F9184A1068BA
:1008100020F440701060106840F480701060106820
:1008200040F0010010602580BFF34F8F70BD0000C5
:1008300000100FE02E2E2F447269766572732F53CD
:10084000544D3332463778785F48414C5F44726983
:100850007665722F5372632F73746D3332663778F7
:10086000785F68616C5F666C6173682E630000007E
:10087000103C024070B504460D46A0F10060B0F592
:10088000801F09D30D482044B0F5846F04D34FF482
:100890002F710BA005F071F9184A106820F4407010
:1008A0001060106840F400701060106840F00100A3
:1008B00010602560BFF34F8F70BD000000100FE087
:1008C0002E2E2F447269766572732F53544D333236
:1008D000463778785F48414C5F4472697665722F7D
:1008E0005372632F73746D3332663778785F686143
:1008F0006C5F666C6173682E63000000103C024000
:10090000134914480A68920703D5826942F020020D
:1009100082610A68D20603D5826942F010028261C0
:100920000A68920603D5826942F0080282610A6869
:10093000520603D5826942F0040282610A681206F7
:1009400003D5826942F002028261F220086070479A
:100950000C3C024074770220124970B50546002015
:10096000886101F087FA104C064609E0681C07D040
:1009700025B101F07FFA801BA84201D9032070BD88
:100980002068C003F2D4206810F0F20F03D0FFF704
:10099000B7FF012070BD2068C00701D00120206092
:1009A000002070BD747702200C3C0240F8B500278F
:1009B0000546774E0C4600970868122806D9B042C3
:1009C00004D074A040F2045105F0D7F86068012803
:1009D00022D0022820D003281ED004281CD00528AD
:1009E0001AD0062818D0072816D0082814D00928AD
:1009F00012D00A2810D00B280ED00C280CD00D28AD
:100A00000AD00E2808D00F2806D0102804D061A0E4
:100A100040F2055105F0B1F8A06890B1012810D05E
:100A200002280ED003280CD004280AD0052808D0AC
:100A3000062806D0072804D056A040F2065105F03B
:100A40009CF895F83C00012818D0012185F83C104D
:100A5000216807202A6809291CD90A3901EB4103BA
:100A6000D16898408143D1602068B04208D128689D
:100A7000217AC26842EA0161C1601AE00220F8BD31
:100A80002A680A38A16800EB4000D3688140194306
:100A9000D1600EE001EB410311699840814311617F
:100AA00029682278A0680B6902EB42029040184343
:100AB000086160681F21072813D22A68401E00EBD6
:100AC0008003506B994088435063296822792088BD
:100AD000521E4B6B80B202EB820290401843486377
:100AE00027E02A680D2812D2C01F00EB8003106B8C
:100AF000994088431063296822792088D21F0B6BA4
:100B000080B202EB820290401843086311E00D3876
:100B100000EB8003D06A99408843D062296822792B
:100B200020880D3ACB6A80B202EB820290401843D3
:100B3000C86226482968814208D12168122905D156
:100B4000D0F8041341F48001C0F8041329688142ED
:100B50001AD12168B14201D0112915D1D0F804135E
:100B600041F40001C0F804132068B0420CD11848C9
:100B700018490068B0FBF1F000EB8000400000E095
:100B8000401E00900028FBD1002085F83C70F8BD85
:100B9000120000102E2E2F447269766572732F5347
:100BA000544D3332463778785F48414C5F44726920
:100BB0007665722F5372632F73746D333266377894
:100BC000785F68616C5F6164632E630000200140A0
:100BD0008400002040420F007047704770470000BB
:100BE0002DE9F04704004FF000057DD06F492068E3
:100BF00088420AD06E49884207D06E49884204D0A4
:100C00006DA04FF4877104F0B8FF606868B1B0F56B
:100C1000803F0AD0B0F5003F07D0B0F5403F04D088
:100C200065A040F20F1104F0A8FFA0684FF0807794
:100C30004FF000784FF0407950B1B84208D04045AD
:100C400006D0484504D04FF488715BA004F095FFAE
:100C5000206930B1012804D057A040F2111104F0EE
:100C60008CFFA06930B1012804D053A04FF48971E2
:100C700004F083FF5E4EA06A68B3B8422BD04045B3
:100C800029D0484527D0B0F1806F24D0B0F1A06FB3
:100C900021D0B0F1C06F1ED0B0F1E06F1BD0B0F129
:100CA000006F18D0B0F1106F15D0B0F1206F12D0D6
:100CB000B0F1306F0FD0B0F1406F0CD0B0F1506F89
:100CC00009D0B0F1706F06D0B04204D03AA040F223
:100CD000131104F052FFE06848B1B0F5006F06D080
:100CE0004FF48A7134A000E03EE004F046FFE06972
:100CF000401E0F2804D930A040F2151104F03DFF2A
:100D0000206B30B1012804D02BA04FF48B7104F07C
:100D100034FF6069012807D030B1022804D026A032
:100D200040F2171104F029FF206A30B1012804D0E5
:100D30004FF48C7120A004F020FFA06AB0420FD0C5
:100D4000E06A68B1B0F1805F0AD0B0F1005F07D00F
:100D5000B0F1405F04D04FF48E7117A004F00DFF86
:100D6000206C002618B108E00120BDE8F087666419
:100D7000204684F83C6000F03DF8206CC00610D49A
:100D8000206C20F4885040F0020020642046FFF7D9
:100D9000FBFA6664206C20F0020040F00100206441
:100DA00000E0012584F83C602846DEE70020014091
:100DB00000210140002201402E2E2F4472697665E9
:100DC00072732F53544D3332463778785F48414C15
:100DD0005F4472697665722F5372632F73746D333B
:100DE00032663778785F68616C5F6164632E630098
:100DF0000100000F2DE9F04706464F484D4B0024F7
:100E00004E4A032531680715DFF834A186B09942B0
:100E10004FF400684FF4005937D1016841F48071F4
:100E2000016000686946029400F480700590C42057
:100E3000CDE90005104600F0EDFD30206946CDE912
:100E400000055046029400F0E5FD009569463D48D6
:100E5000CDE9015400F0DEFD3B4D3C4A3A48C5E97E
:100E60000024AC600C35931585E89003C5E9043483
:100E7000AC610C3D00F068FB10B14FF4987155E087
:100E8000B563AE6306B0BDE8F087314B994225D11A
:100E9000016841F40071016000686946029400F441
:100EA000007005900220CDE90005104600F0B2FD6B
:100EB000254D4FF0007225496035303916C5A5F132
:100EC0000C0085E890032C616C61AC610C3D00F076
:100ED0003BFB0028D4D040F2571127E01D4A914235
:100EE000D0D1016841F480610160006869460294D4
:100EF00000F4806005900F20CDE90005504600F019
:100F000089FD114D4FF080621049C035483916C532
:100F1000A5F10C0085E890032C616C61AC610C3D7F
:100F200000F012FB0028ABD040F281110AA004F0BF
:100F300014FEA5E7002001404438024000000240B2
:100F40000008024000040240084100207064024092
:100F500000210140002201402E2E2F5372632F6189
:100F600064632E6300000000F8B5002504461646B1
:100F70000F460095806930B1012804D040A040F2AE
:100F8000FA3104F0FAFDE06A68B1B0F1805F0AD08E
:100F9000B0F1005F07D0B0F1405F04D038A040F25C
:100FA000FB3104F0EAFD94F83C00012807D0012051
:100FB00084F83C0020688168C90702D011E0022053
:100FC000F8BD82683C4942F0010282603B480068FB
:100FD000B0FBF1F000EB400000E0401E0090002864
:100FE000FBD120688168C90748D0216C40F20162BA
:100FF000914341F4807121644068400505D5206C1F
:1010000020F4005040F480502064206CC00404D5CB
:10101000606C20F00600606400E065646FF0220000
:1010200084F83C50A26B2649D163A26B2549116418
:10103000A26B2549D164216808602068416841F0AD
:10104000806141602068816841F48071816021681D
:101050003346A06B3A464C3100F0ECFB1B49D1F80B
:101060000403C006206801D0884207D1816811F0CE
:10107000405F03D1816841F0804181600020F8BD6C
:101080002E2E2F447269766572732F53544D33326E
:10109000463778785F48414C5F4472697665722FB5
:1010A0005372632F73746D3332663778785F68617B
:1010B0006C5F6164632E630040420F008400002077
:1010C000050300087D0300086703000800200140B5
:1010D00070B50B6815460E460446A3B1242B12D0FA
:1010E0000C2B10D0142B0ED01C2B0CD0042B0AD0A0
:1010F0002C2B08D0342B06D03C2B04D01AA040F265
:101100000E3104F03AFD706830B1022804D016A008
:1011100040F20F3104F031FD35B1102D04D04FF401
:10112000447111A004F029FD607901281AD0012230
:10113000627102202071D6E90001236840F6FE7634
:1011400008431968AE40B143A840C0260843186060
:101150002068AE400168B143016000232271184647
:10116000637170BD022070BD2E2E2F4472697665AA
:1011700072732F53544D3332463778785F48414C61
:101180005F4472697665722F5372632F73746D3387
:1011900032663778785F68616C5F6461632E6300E4
:1011A00070B504000BD00C492068884203D0EE21B2
:1011B0000AA004F0E2FC2079002510B105E001202E
:1011C00070BD2046657100F025F8022121710120D3
:1011D00025612071002070BD007400402E2E2F4428
:1011E0007269766572732F53544D3332463778786F
:1011F0005F48414C5F4472697665722F5372632F6A
:1012000073746D3332663778785F68616C5F6461E0
:10121000632E630000B5006887B00B49884211D186
:101220000A48016841F00051016000680321002272
:1012300000F00050059030208DE807000448694612
:1012400000F0E8FB07B000BD0074004040380240E9
:1012500000000240F8B507461E460D0014464FF048
:101260000000009006D0102D04D011A040F24631AD
:1012700004F083FC44B1042C06D0082C04D00CA04C
:1012800040F2473104F079FC4FF6F070864204D901
:101290004FF4527106A004F070FC386800902044AE
:1012A00025B11430009006600020F8BD0830F9E741
:1012B0002E2E2F447269766572732F53544D33323C
:1012C000463778785F48414C5F4472697665722F83
:1012D0005372632F73746D3332663778785F686149
:1012E0006C5F6461632E630070B50D00044606D028
:1012F000102D04D01CA04FF4B77104F03EFC6079AF
:10130000012817D00121617102222271002D22686B
:1013100001FA05F0136843EA0003136020680268CD
:10132000056809D002F48023B3F5802F05F460121C
:101330000ED014E0022070BD02F00403042B05F06F
:1013400038020CD1382A0AD1426842F0010205E085
:10135000B2F5601F03D1426842F0020242600020F1
:101360002171607170BD00002E2E2F447269766568
:1013700072732F53544D3332463778785F48414C5F
:101380005F4472697665722F5372632F73746D3385
:1013900032663778785F68616C5F6461632E6300E2
:1013A0002DE9F84304464FF00008654B0820CDF8BE
:1013B00000804FF41652A56D94F85C101B682E68DF
:1013C000B3FBF2F700FA01F131420FD021680A684D
:1013D00052070BD50A6822F004020A6094F85C10E8
:1013E0008840A860606D40F00100606594F85C1072
:1013F00054488840304208D021684969090604D51C
:10140000A860606D40F0020060654E4894F85C1082
:10141000C01C8840304208D021680968890704D57B
:10142000A860606D40F00400606594F85C101020C6
:101430008840304218D021680968090714D5A8608F
:1014400020680168490304D50068000308D5A16C31
:1014500007E00168C90503D4016821F008010160B3
:10146000216C09B12046884794F85C1020204FF089
:1014700001098840304231D021680968C9062DD55C
:10148000A86094F8350005282068016806D0490353
:1014900047D5006800031DD4616C1CE021F01601E3
:1014A00001602068416921F080014161206C08B928
:1014B000A06C20B12068016821F00801016094F857
:1014C0005C303F229A40AA6084F8348084F83590DA
:1014D000216D1FE0E16B09B120468847606D00284F
:1014E0002BD0606DC00714D0052084F8350020682B
:1014F000016821F0010101600098401C0090B84291
:1015000003D820680068C007F6D184F8348084F8D6
:101510003590E16C002910D001B02046BDE8F043C1
:1015200008470168C905D5D4036823F01003036098
:1015300084F8348084F83590CCE7BDE8F883000067
:1015400084000020010080002DE9F047044600F0EF
:1015500091FC002C05467CD0A549206888423ED0ED
:10156000A349183188423AD0A1493031884236D057
:101570009F494831884232D09D49603188422ED0FF
:101580009B49783188422AD099499031884226D0A7
:101590009749A831884222D0964988421FD0954960
:1015A000183188421BD093493031884217D0914975
:1015B0004831884213D08F49603188420FD08D491D
:1015C000783188420BD08B499031884207D08949C5
:1015D000A831884203D0CA2187A004F0CEFA6068FF
:1015E000C0B1B0F1007F15D0B0F1806F12D0B0F172
:1015F000C06F0FD0B0F1006F0CD0B0F1206F09D0E8
:10160000B0F1406F06D0B0F1606F03D0CB217AA06B
:1016100004F0B3FAA06838B1402805D0802803D080
:10162000CC2175A004F0A9FAE068B0F5007F04D0E1
:1016300018B1CD2170A004F0A0FA2069B0F5806F38
:1016400004D018B1CE216CA004F097FA606958B1AB
:1016500000E072E0B0F5006F06D0B0F5805F03D017
:10166000CF2165A004F089FAA06948B1B0F5005F08
:1016700006D0B0F5804F03D0D0215FA004F07DFAF2
:10168000E06940B1B0F5807F05D0202803D0D1219A
:1016900059A004F072FA206A60B1B0F5803F09D019
:1016A000B0F5003F06D0B0F5403F03D0D22152A0A4
:1016B00004F063FA606A002832D0042806D0D321EF
:1016C0004DA004F05AFA606A002829D0A06A48B1F7
:1016D000012807D0022805D0032803D0D82146A02E
:1016E00004F04BFAE06A60B1B0F5000F09D0B0F138
:1016F000807F06D0B0F1C07F03D0D9213EA004F096
:101700003CFA206B60B1B0F5001F09D0B0F5800F36
:1017100006D0B0F5C00F03D0DA2137A004F02DFABF
:101720004FF0000984F83490022184F835102068C5
:10173000016821F0010101600DE00120BDE8F087A2
:1017400000F098FB401B052805D920216165032086
:1017500084F83500F2E720680068C007F0D1D4E9CA
:101760000020D4E90251D4E9043C284304F11805CF
:1017700019430843116895E8E00140EA0C002C4B3E
:101780002843194040EA060040EA0700B8F1040F78
:1017900040EA010003D1D4E90B1319430843106058
:1017A00020680126656A4069042D20F0070045EA9B
:1017B00000050CD1D4E90A01054341B12046FEF7EA
:1017C000D9FE20B14020606584F83560B5E7206817
:1017D00045612046FEF7BAFE94F85C303F229A40FD
:1017E0008260C4F8549084F835600020A6E70000B9
:1017F00010600240106402402E2E2F4472697665FC
:1018000072732F53544D3332463778785F48414CCA
:101810005F4472697665722F5372632F73746D33F0
:1018200032663778785F68616C5F646D612E630043
:101830003F8010F02DE9F04704468946581E4FF6C8
:10184000FF7100251E46A76D8842904604D31FA055
:101850004FF4EB7104F091F994F8340001280DD0A5
:1018600094F835200121002084F83410012A07D093
:10187000022584F834002846BDE8F0870220FBE703
:10188000022184F8351060653346424649462046B9
:10189000FEF79AFE94F85C103F208840B8602068FC
:1018A000016841F0160101602068416941F0800142
:1018B0004161206C20B12068016841F0080101609D
:1018C0002068016841F001010160D4E72E2E2F4409
:1018D0007269766572732F53544D33324637787878
:1018E0005F48414C5F4472697665722F5372632F73
:1018F00073746D3332663778785F68616C5F646DDE
:10190000612E63000348016841F00041016000203E
:1019100070470000103C02402DE9F047224E05467A
:1019200014461F468946307D012813D001203075AA
:101930004DB1012D07D0022D05D0032D03D0BE21BE
:101940001AA004F01AF94CF250384046FFF704F898
:1019500018B126E00220BDE8F08735B1012D09D08D
:10196000022D0CD0032D14D10EE04846E1B2FEF753
:10197000AFFE0EE0A1B24846FEF736FF09E0214671
:101980004846FEF777FF04E022463B464846FEF70E
:10199000E3FE4046FEF7E0FF13490A6822F0010229
:1019A0000A6000213175D6E7747702202E2E2F446D
:1019B0007269766572732F53544D33324637787897
:1019C0005F48414C5F4472697665722F5372632F92
:1019D00073746D3332663778785F68616C5F666CFC
:1019E0006173682E63000000103C024006480068E6
:1019F000002807DA044805490C38054A01600260EE
:101A00000020704701207047103C024023016745C9
:101A1000AB89EFCD2DE9F84F0446AC4800260D46C2
:101A2000844221D0AA4884421ED0AA4884421BD0B6
:101A3000A948844218D0A948844215D0A8488442B5
:101A400012D0A84884420FD0A74884420CD0A7489F
:101A5000844209D0A648844206D0A648844203D0D6
:101A6000C321A5A004F089F828880004000C03D144
:101A7000C421A1A004F081F86868F8B101281DD044
:101A800011281BD0022819D0122817D0A949884242
:101A900014D0A949884211D0A84988420ED0A8493B
:101AA00088420BD0A749884208D0A749884205D070
:101AB000032803D0C52190A004F05FF8A86838B1CE
:101AC000012805D0022803D0C6218BA004F055F8C8
:101AD0004FF0010B2F680BFA06F00740824657457E
:101AE0007ED16868022801D0122832D12869F8B165
:101AF00001281DD002281BD0032819D0042817D094
:101B0000052815D0062813D0072811D008280FD093
:101B100009280DD00D280BD00A2809D00B2807D092
:101B20000C2805D00F2803D0D72173A004F025F886
:101B3000F00829690F2304EB80024FEA467C106A03
:101B40004FEADC6C03FA0CF3984301FA0CF1014301
:101B5000116203212A7920687300984602F003027B
:101B600001FA03F902FA08F220EA090002432260AE
:101B70006868012805D0022803D0112801D0122856
:101B80001CD1E86848B1012807D0022805D00328F5
:101B900003D0EB2158A003F0F0FFA068E96820EA29
:101BA000090001FA08F10143A1606068297920EA7F
:101BB0000A00C1F30011B14001436160E068A96807
:101BC00020EA090001FA08F10143E1606868C000F9
:101BD00075D55E48016841F480410160006800E00D
:101BE0006DE000F480400090594826F00303B207EE
:101BF00003440F21120FD3F80808DFF8D0C091403A
:101C0000644520EA010001D100212DE030498C42D9
:101C100001D1012128E02F498C4201D1022123E08A
:101C20002D498C4201D103211EE02C498C4201D167
:101C3000042119E02A498C4201D1052114E02949E7
:101C40008C4201D106210FE027498C4201D10721A6
:101C50000AE026498C4201D1082105E024498C4242
:101C600001D1092100E00A2191403A4A0143C3F819
:101C7000081869681068C90320EA070000D53843CE
:101C800034491060091D6A680868920320EA070059
:101C900000D538432F4A0860083269681068C902C5
:101CA00020EA070000D538432A4910600C316A68E1
:101CB0000868920220EA070000D538430860761CC5
:101CC000102EFFF407AFBDE8F88F000000000240BF
:101CD0000004024000080240000C024000100240D4
:101CE0000014024000180240001C02400020024084
:101CF00000240240002802402E2E2F44726976658F
:101D000072732F53544D3332463778785F48414CC5
:101D10005F4472697665722F5372632F73746D33EB
:101D200032663778785F68616C5F6770696F2E63C1
:101D30000000000000001110000021100000311010
:101D4000000012100000221000003210443802403F
:101D500000300140003C014070B50C00054604D144
:101D600004A040F28D1103F008FF2869204000D044
:101D7000012070BD2E2E2F447269766572732F5329
:101D8000544D3332463778785F48414C5F4472692E
:101D90007665722F5372632F73746D3332663778A2
:101DA000785F68616C5F6770696F2E630000000088
:101DB00070B50C00054604D104A040F2C31103F035
:101DC000DCFE68696040686170BD00002E2E2F4403
:101DD0007269766572732F53544D33324637787873
:101DE0005F48414C5F4472697665722F5372632F6E
:101DF00073746D3332663778785F68616C5F6770D3
:101E0000696F2E630000000070B50C001546064691
:101E100004D109A040F2AD1103F0AFFE45B1012D90
:101E200004D005A04FF4D77103F0A7FEB46170BDD4
:101E30002004B06170BD00002E2E2F4472697665BB
:101E400072732F53544D3332463778785F48414C84
:101E50005F4472697665722F5372632F73746D33AA
:101E600032663778785F68616C5F6770696F2E6380
:101E7000000000000148006870470000800000205A
:101E800002480168491C0160704700008000002082
:101E9000032010B500F0ECF8002000F005F800F089
:101EA0003DF8002010BD000010B5002201461C20A6
:101EB00088B000F08FF81C2000F05CF8144801682E
:101EC00041F001010160006805A900F001000690E1
:101ED000684600F087FA00F0ABFA0E494000002295
:101EE00040F2E733B0FBF1F10B484FF0804404605F
:101EF000C0E90332491EC0E9011201F031FA10B104
:101F0000012008B010BD044801F008FBF9E700000B
:101F10004038024040420F00783D0020032010B5B9
:101F200000F0A6F800226FF00B00114600F052F806
:101F300000226FF00A00114600F04CF800226FF00A
:101F40000900114600F046F80022501F114600F02B
:101F500041F80022101F114600F03CF800220F212A
:101F6000901E00F037F800220F21BDE81040501EEF
:101F700000F030B810B5040003D5D02106A003F05E
:101F8000FCFD600904F01F028100012001F1E02145
:101F90009040C1F8000110BD2E2E2F447269766565
:101FA00072732F53544D3332463778785F48414C23
:101FB0005F4472697665722F5372632F73746D3349
:101FC00032663778785F68616C5F636F72746578CA
:101FD0002E63000070B5102A14460D46064603D342
:101FE000BC2113A003F0C9FD102D03D3BD2110A007
:101FF00003F0C3FD1D480068C0F30223C3F10702CC
:10200000042A00D90422181D072801D2002300E069
:10201000DB1E012101FA02F09940401E2840491EB2
:102020009840214001433046BDE8704002F098BD21
:102030002E2E2F447269766572732F53544D3332AE
:10204000463778785F48414C5F4472697665722FF5
:102050005372632F73746D3332663778785F6861BB
:102060006C5F636F727465782E6300000CED00E0A6
:1020700070B5072804460BD0062C09D0052C07D0D4
:10208000042C05D0032C03D0A42108A003F075FD77
:10209000154904F007024FF6FF050868134B284066
:1020A00040EA02201843086070BD00002E2E2F4425
:1020B0007269766572732F53544D33324637787890
:1020C0005F48414C5F4472697665722F5372632F8B
:1020D00073746D3332663778785F68616C5F636FF5
:1020E000727465782E6300000CED00E00000FA05C4
:1020F0001848F8B5016841F0805101600068164C3D
:1021000000F080500090206840F480302060FFF79D
:10211000B1FE4FF47A76054605E000BFFFF7AAFE50
:10212000401BB0420FD86068C003F7D5206840F468
:1021300000302060FFF79EFE054606E0FFF79AFE9E
:10214000401BB04201D90320F8BD60688003F5D57B
:102150000020F8BD40380240007000402DE9F047F3
:10216000054600680C46401E0E2804D98BA040F29C
:10217000692103F002FD14B3012C20D0022C1ED0E3
:10218000032C1CD0042C1AD0052C18D0062C16D0E9
:10219000072C14D0082C12D0092C10D00A2C0ED0E9
:1021A0000B2C0CD00C2C0AD00D2C08D00E2C06D0E9
:1021B0000F2C04D079A040F26A2103F0DEFCDFF896
:1021C0001482D8F8000000F00F00A0420CD2D8F81A
:1021D000001021F00F012143C8F80010D8F80000CA
:1021E00000F00F00A04273D128787B4E80071CD5E9
:1021F000A868A0B1802812D0902810D0A0280ED0B6
:10220000B0280CD0C0280AD0D02808D0E02806D0AA
:10221000F02804D061A040F2812103F0AEFCA9684F
:10222000306820F0F000084330602878C00754D0B0
:10223000694F6868083F68B1012821D0022822D080
:102240004FF4227155A003F098FC6868012817D05C
:10225000022818D03868800700284FDA696830688B
:1022600020F0030008433060FFF704FE696807466A
:1022700041F2883001290FD00229814619D028E087
:1022800038688003E8E738688001E5E7FFF7F2FD8A
:10229000C11B494501D918E081463068C0F381006F
:1022A0000128F3D119E000BFFFF7E4FDC11B494548
:1022B0000BD83068C0F381000228F5D10DE000BFD3
:1022C000FFF7D8FDC11B494503D90320BDE8F087BE
:1022D00014E0306810F00C0FF2D1D8F8001040462E
:1022E00001F00F01A1420BD9016821F00F01214338
:1022F0000160006800F00F00A04201D00120E5E776
:1023000028784FF480544FF4A0574FF4C05840073A
:102310004FF4E05914D5E86860B1A0420AD0B84241
:1023200008D0404506D0484504D01CA040F2DB212F
:1023300003F023FCE968306820F4E0500843306083
:102340002878000715D5286960B1A0420AD0B842A4
:1023500008D0404506D0484504D010A040F2E22104
:1023600003F00BFC2869316821F4604141EAC000A8
:10237000306000F075F83168F02292FAA2F201F0B4
:10238000F001B2FA82F2D140144A515CC8401449BB
:1023900008600020FFF788FD002097E72E2E2F44CD
:1023A0007269766572732F53544D3332463778789D
:1023B0005F48414C5F4472697665722F5372632F98
:1023C00073746D3332663778785F68616C5F7263FF
:1023D000632E6300003C0240083802403C6D000858
:1023E000840000200D4A0F2330B503604FF4E05401
:1023F0000B4B156805F003054560156805F0F00501
:102400008560156805F4E055C560126804EAD202DB
:102410000261186800F00F00086030BD0838024003
:10242000003C024001480068704700008400002022
:1024300008484FF4E052016892FAA2F2064801F40B
:10244000E051B2FA82F2D140044A0068515CC840BF
:102450007047000008380240840000204C6D0008DE
:102460001D4930B51D48096811F00C011AD0431000
:10247000042916D0082915D1174947F6C072091F3B
:102480000C680D6804F03F046D020CD50D68B3FBB9
:10249000F4F092FAA2F31540B3FA83F2D540684300
:1024A0000BE0184630BD0B68B0FBF4F092FAA2F4D2
:1024B0001340B4FA84F2D340584309684FF44032D1
:1024C00092FAA2F201F44031B2FA82F2D140491CF0
:1024D0004900B0FBF1F030BD083802400024F400A0
:1024E0002DE9F84F0446006800270F2804D9FDA005
:1024F00040F2091103F041FB2078DFF82094A9F1A4
:10250000040AC007AAF1040558D060684FF4803669
:102510004FF4A02840B1B04206D0404504D0F1A00D
:1025200040F20F1103F029FBD9F800104846C1F31F
:102530008101012908D00068C0F3810002280AD176
:10254000DAF80000400206D52868800336D56068B6
:1025500000287DD032E06068B04203D1286840F4A2
:10256000803009E008B140450DD0286820F4803063
:102570002860286820F480202860606888B1FFF710
:1025800079FC064609E0286840F480202860E5E7E9
:10259000FFF770FC801B64287ED828688003F7D57D
:1025A0000CE0FFF767FC064605E000BFFFF762FCA2
:1025B000801B6428F0D828688003F7D4207880072F
:1025C0005AD5E06830B1012804D0C6A040F24111CC
:1025D00003F0D3FA20691F2804D9C2A04FF4A171D7
:1025E00003F0CBFAD9F8001048464FF0F80811F084
:1025F0000C0F08D00068C0F3810002280AD1DAF875
:102600000000400206D42868800717D5E06801283A
:102610001ED113E0E068002828681DD040F00100BA
:102620002860FFF727FC064605E000BFFFF722FC05
:10263000801B0228B0D828688007F7D520692A684F
:1026400098FAA8F1B1FA81F1884022F0F80100E08F
:1026500047E1014329600FE020F001002860FFF707
:1026600009FC064605E000BFFFF704FC801B0228BA
:1026700092D828688007F7D42078000735D5A74E70
:1026800060696C36F0B1012808D096A04FF4C17192
:1026900003F073FA606900E065E198B13168B04613
:1026A00041F001013160FFF7E5FB064605E000BFA0
:1026B000FFF7E0FB801B0228BCD8D8F80000800799
:1026C000F6D512E03168B04621F001013160FFF724
:1026D000D1FB064605E000BFFFF7CCFB801B0228BC
:1026E000A8D8D8F800008007F6D42078400775D520
:1026F000A06840B1012806D0052804D04FF4D67157
:1027000078A003F03AFADFF8148208F13808D8F814
:102710000000C0000BD4D8F8001041F08051C8F878
:102720000010D8F80000012700F0805000907C488D
:102730000168C90511D40168834641F480710160C4
:10274000FFF798FB064604E0FFF794FB801B642824
:102750008ED8DBF80000C005F6D5704EA06868364C
:1027600001280AD008B1052811D0306820F00100F6
:102770003060306820F0040002E0306840F0010072
:102780003060A068A0B1FFF775FB83460CE03068AD
:1027900040F004003060F0E7FFF76CFBA0EB0B01AA
:1027A00041F28830814287D830688007F4D50EE046
:1027B000FFF760FB834607E0FFF75CFBA0EB0B0134
:1027C00041F2883081428BD830688007F4D42FB131
:1027D000D8F8001021F08051C8F80010A069002836
:1027E0007ED0012809D0022807D04FF4F8713DA00F
:1027F00003F0C3F9A0690028F2D0D9F80000C0F3B3
:10280000810002286DD0A069022807D0286820F036
:1028100080702860FFF72EFB0446A7E0E06938B11E
:10282000B0F5800F04D02FA040F2F91103F0A5F904
:10283000206A801E3D2804D92AA04FF4FD7103F0C0
:102840009CF9606A3238B0F5BF7F04D925A040F208
:10285000FB1103F092F9A06A02280AD0042808D0DC
:10286000062806D0082804D04FF4FE711DA003F0FE
:1028700084F9E06A801E0D2804D91AA040F2FD11E7
:1028800003F07BF9286820F080702860FFF7F2FAE7
:10289000064604E0FFF7EEFA801B022863D828689A
:1028A0008001F7D447F6C0704FF0FF36D4E9091322
:1028B00090FAA0F24FF44037B2FA82F297FAA7F7F3
:1028C00006EB5303D4E907069140B7FA87F7E26AAB
:1028D0004FF0706CBB4030439CFAACF4194321E0DC
:1028E00047E048E02E2E2F447269766572732F53AD
:1028F000544D3332463778785F48414C5F447269B3
:102900007665722F5372632F73746D333266377826
:10291000785F68616C5F7263632E63000838024001
:1029200000700040B4FA84F308439A40104340F02A
:102930000050CAF80000286840F080702860FFF757
:1029400099FA044605E000BFFFF794FA001B02283D
:1029500009D828688001F7D50BE000BFFFF78AFA95
:10296000001B022802D90320BDE8F88F28688001E7
:10297000F4D40020F8E70120F6E7704790F85D00F6
:10298000704700002DE9F04704007DD0864920689B
:10299000884213D08549884210D0854988420DD09D
:1029A000844988420AD08449884207D083498842B2
:1029B00004D04FF48A7182A003F0DFF8606838B168
:1029C000B0F5827F04D07EA040F2151103F0D5F857
:1029D000A0684FF4806648B1B04207D0B0F5004F10
:1029E00004D077A04FF48B7103F0C7F8E0684FF480
:1029F00070674FF4E065B84226D0B0F5606F23D021
:102A0000B0F5506F20D0B0F5406F1DD0B0F5306FED
:102A10001AD0B0F5206F17D0B0F5106F14D0B0F504
:102A2000006F11D0A8420FD0B0F5C06F0CD0B0F538
:102A3000A06F09D0B04207D0B0F5407F04D060A0AD
:102A400040F2171103F099F8A069B0F5007F08D0A3
:102A500038B1B0F5802F04D04FF48C7158A003F03A
:102A60008CF8606B082805D020B155A040F21911F0
:102A700003F083F8E069A0B1082812D0102810D024
:102A800018280ED0202800E020E00AD0282808D0FE
:102A9000302806D0382804D049A04FF48D7103F0B7
:102AA0006CF8206A30B1802804D045A040F21B1198
:102AB00003F063F8606A60B110281CD04FF48E7187
:102AC0003FA003F05AF8606A18B114E00120BDE895
:102AD000F087206930B1022804D039A040F21F11DC
:102AE00003F04BF8606930B1012804D04FF49071C5
:102AF00033A003F042F894F85D000026A66220B9E6
:102B0000204684F85C6000F077F8022284F85D20AB
:102B10002068016821F040010160E068A84204D902
:102B2000B8424FF0000102D104E04FF48051A842B6
:102B300000D0A6624FF00109236B2BB9A84201D93E
:102B4000226301E0C4F83090D4E90458D4E90102CA
:102B5000278B45EA0805A36A104307F40078284349
:102B60002568D4E907C240EA080040EA0C00CC46D8
:102B70000427104318432860D4F81880656B606AF6
:102B8000E26807EA1847236828433A43104308439A
:102B900058602068C16921F40061C161266684F82B
:102BA0005DC0002093E70000003001400038004085
:102BB000003C0040003401400050014000540140FE
:102BC0002E2E2F447269766572732F53544D333213
:102BD000463778785F48414C5F4472697665722F5A
:102BE0005372632F73746D3332663778785F686120
:102BF0006C5F7370692E63002DE9F0432949074625
:102C0000006887B0884249D12748016841F4805163
:102C1000016000680024022100F4805005903820F3
:102C200005238DE8130003222048CDE903236946DC
:102C3000FEF7F0FE1E4E4FF480691E4A4FF0C0684A
:102C400030463260C6E90184C6E903497461B46163
:102C5000F46134627462FEF777FC18B17F2116A02C
:102C600002F07BFF124D4023BE656035B76305F16E
:102C70000800104A483280E818026C612846AC61AE
:102C8000EC612C626C62C5E90028FEF75DFC18B1AE
:102C9000912109A002F061FF7D65AF6307B0BDE837
:102CA000F08300000030014044380240000402403C
:102CB000303E0020106402402E2E2F5372632F737B
:102CC00070692E6300000000704770472DE9F05FC7
:102CD0000D468168002699460A9F924604464FF0A9
:102CE000010821B187A040F2823102F046FF94F83A
:102CF0005C0001280ED0012084F85C00FFF7BAF8D0
:102D0000834694F85D00616801280CD0B1F5827F9C
:102D100007D102E00220BDE8F09FA16809B90428AC
:102D200001D00226E5E0002D78D0BAF1000FFBD0EB
:102D3000B9F1000FF8D094F85D00042802D0052006
:102D400084F85D00A4F844900020A4F83C904FF46F
:102D5000E061C4F840A0A563E26820668A42E064AE
:102D60002065A4F84690A4F83E9003D8B4F8460035
:102D7000012804D92068426822F4805203E02068C8
:102D8000426842F48052426020680268520603D4CE
:102D9000026842F040020260E068884260683ED902
:102DA00010B1E08F012831D1216835F8020BC860DD
:102DB000E08F401EE08729E0B8F1000F0DD0E08FD2
:102DC00058B120688168890707D535F8022B4FF084
:102DD0000008C260E08F401EE087B4F8460068B18A
:102DE00020688168C90709D0C0684FF001082AF837
:102DF000020BB4F84600401EA4F84600781C05D02B
:102E0000FFF738F8A0EB0B00B8425ED2E08F002845
:102E1000D2D1B4F846000028CED15FE068E010B10E
:102E2000E08F012853D1216815F8010B0873E08F5A
:102E3000401EE0874BE000BFB8F1000F16D0E08FD6
:102E4000A0B120688168890710D5E18F012905D9D3
:102E500035F8021BC160E08F801E04E015F8011BED
:102E60000173E08F401EE0874FF00008B4F8460081
:102E700018B320688168C9071FD0B4F8461001292B
:102E800011D9C0682AF8020BB4F84600801EA4F8D5
:102E90004600B4F8460001280DD82068416841F486
:102EA0008051416007E0017B0AF8011BB4F846003D
:102EB000401EA4F846004FF00108781C07D0FEF72A
:102EC000D9FFA0EB0B00B84201D3032611E0E08F3D
:102ED0000028B1D1B4F846000028ADD15A46394691
:102EE000204601F0FCFE08B120202066206E00B1D3
:102EF0000126012084F85D000021304684F85C1032
:102F000009E700002E2E2F447269766572732F53E5
:102F1000544D3332463778785F48414C5F4472698C
:102F20007665722F5372632F73746D333266377800
:102F3000785F68616C5F7370692E63002DE9F047FC
:102F40000446806800271E469046894620B14FF40B
:102F5000D46167A002F011FE94F85C0001280CD047
:102F600094F85D10012062680025012984F85C0056
:102F70000CD0B2F5827F07D102E00220BDE8F087D5
:102F8000A2680AB9042901D0022798E0B9F1000F1C
:102F900026D0B8F1000F23D016B394F85D100429A1
:102FA00002D0052184F85D102566C4F83890A68704
:102FB000E687C4F84080A4F84460A4F84660E5645D
:102FC000256521684A6822F4C0424A60E168B1F58B
:102FD000E06F07D92068416821F48051416031E0F9
:102FE00001276CE021684FF400524B6843F4805392
:102FF0004B60616D896991420CD194F83C10C9070E
:1030000021684B685FD043F480434B60E18F00EB55
:103010005101E187A16D8969914213D121684A6804
:1030200022F480524A60B4F84610C90751D0216892
:103030004A6842F400524A60B4F8461000EB51006E
:10304000A4F8460094F85D00A16D04284AD03648E3
:1030500008643648A16DC863A06D3549C164A06D90
:103060000565B4F846302168226CA06D0C31FEF77E
:10307000E1FB2068416841F001014160606D056439
:10308000606DC563606DC564606D0565E38F226822
:10309000A16B606D0C32FEF7CDFB2068016849061C
:1030A00003D4016841F0400101602068416841F0AB
:1030B000200141602068416841F0020141603846CA
:1030C00084F85C505AE723F480434B60E18F490851
:1030D0009FE72068416821F400514160B4F8460040
:1030E0004008ADE7134808641348A16DB3E700003A
:1030F0002E2E2F447269766572732F53544D3332DE
:10310000463778785F48414C5F4472697665722F24
:103110005372632F73746D3332663778785F6861EA
:103120006C5F7370692E6300AF4B00080F4C000892
:10313000834B0008A54B0008B94B00087047704747
:1031400010B504284FF0E02409D020B106A040F2C9
:10315000DB1102F012FD206920F0040002E020697A
:1031600040F00400206110BD2E2E2F447269766558
:1031700072732F53544D3332463778785F48414C41
:103180005F4472697665722F5372632F73746D3367
:1031900032663778785F68616C5F636F72746578E8
:1031A0002E630000401EB0F1807F10B501D30120D6
:1031B00010BD4FF0E02460610F21601701F0D0FCDA
:1031C0000020A0610721216110BD704770470000F9
:1031D0002DE9F0414D4F044600680D46DFF830817F
:1031E000B84219D0B0F1804F16D04A49884213D066
:1031F0004949884210D0494988420DD04FEAB74129
:10320000884209D04649884206D0404504D045A0AE
:1032100040F26E6102F0B1FC286890B1102810D025
:1032200020280ED030280CD040280AD0502808D0B2
:10323000602806D0702804D03AA040F26F6102F0F6
:103240009CFCA868802805D020B14FF4CE6135A041
:1032500002F093FC94F83C00012854D0012084F83B
:103260003C0020684668B842876801D0404538D1A4
:10327000686888B3B0F5801F2ED0B0F5001F2BD042
:10328000B0F5401F28D0B0F5800F25D0B0F5A00FC5
:1032900022D0B0F5C00F1FD0B0F5E00F1CD0B0F5B4
:1032A000000F19D0B0F5100F16D0B0F5200F13D0C5
:1032B000B0F5300F10D0B0F5400F0DD0B0F5500F75
:1032C0000AD0B0F5600F07D0B0F5700F04D015A08C
:1032D00040F27F6102F051FC696826F4700041EA17
:1032E0000006286826F070022668A96800251043A9
:1032F00027F080037060194320688160284684F8B5
:103300003C50BDE8F0810220FBE7000000000140D6
:10331000000401400004004000080040000C004090
:10332000001400402E2E2F447269766572732F535D
:10333000544D3332463778785F48414C5F44726968
:103340007665722F5372632F73746D3332663778DC
:10335000785F68616C5F74696D5F65782E630000EB
:1033600010B5040054D03448226882422AD0B2F109
:10337000804F27D03148824224D03148824221D028
:10338000304882421ED0304882421BD02F488242B1
:1033900018D02F48824215D02E48824212D02E4893
:1033A00082420FD02D4882420CD02D48824209D053
:1033B0002C48824206D02C48824203D0D2212BA036
:1033C00002F0DBFBA06858B1102809D0202807D0F4
:1033D000402805D0602803D0D32124A002F0CDFBE3
:1033E000206948B1B0F5807F06D0B0F5007F03D0EA
:1033F000D4211EA002F0C1FBA06928B1802803D00F
:10340000D5211AA002F0B9FB94F83D0010B107E0F5
:10341000012010BD002084F83C00204600F042F856
:10342000022084F83D002068211D01F0A7FD012045
:1034300084F83D00002010BD000001400004004061
:1034400000080040000C0040001000400014004044
:103450000004014000400140004401400048014098
:1034600000180040001C0040002000402E2E2F4479
:103470007269766572732F53544D333246377878BC
:103480005F48414C5F4472697665722F5372632FB7
:1034900073746D3332663778785F68616C5F746916
:1034A0006D2E630008B501681748814208D117489E
:1034B000016841F010010160006800F010000BE0AD
:1034C0001248134A001D914208D1016841F00201DF
:1034D0000160006800F00200009008BD0D4A9142B2
:1034E00007D1016841F400310160006800F4003048
:1034F000F2E7094A9142F0D1016841F4802101606C
:10350000006800F48020E7E70010004040380240E7
:1035100000040140004401400048014010B501682A
:1035200004461D4881422BD0B1F1804F28D01B4862
:10353000814225D01A48814222D01A4881421FD0A8
:10354000194881421CD01948814219D0184881423B
:1035500016D01848814213D01748814210D017481E
:1035600081420DD0164881420AD01648814207D0C8
:103570001548814204D04FF4B07114A002F0FDFA56
:103580002068C16841F00101C1602068016841F014
:1035900001010160002010BD000001400004004056
:1035A00000080040000C00400010004000140040E3
:1035B0000004014000400140004401400048014037
:1035C00000180040001C0040002000402E2E2F4418
:1035D0007269766572732F53544D3332463778785B
:1035E0005F48414C5F4472697665722F5372632F56
:1035F00073746D3332663778785F68616C5F7469B5
:103600006D2E63002DE9F05F044690F83C000D46F6
:10361000012842D00221012084F83C0084F83D10AA
:103620004FF4805A28684FF4005B504515D0584538
:1036300013D090B1102810D020280ED030280CD0F4
:1036400040280AD0502808D0602806D0702804D01E
:10365000ECA040F68C7102F090FA20684FF0804C9C
:10366000F649DFF8DC83864680684FF40049F54A66
:10367000F54B00EA0800F54E20F47F48F44FCEF8F1
:103680000880286850287DD00FDC20287BD007DCFC
:10369000002879D0102851D175E10220BDE8F09FB3
:1036A000302872D04028F6D129E160286ED07028E9
:1036B0004FF440587AD0504541D05845EBD120685E
:1036C00088420ED060450CD090420AD0984208D073
:1036D000B04206D0B84204D0CAA040F6B67102F09B
:1036E0004CFA6868484509D040B1022806D00A283B
:1036F00004D0C4A040F6B77102F03FFAA86850B1F8
:10370000504508D0584506D0404504D0BDA040F6ED
:10371000B87102F032FAE8680F2804D9B9A040F66F
:10372000B97102F02AFAEB682068D5E9012101F0AD
:1037300007FD2068816841F480418160D7E02068FE
:1037400088422DD060452BD0904229D0984227D076
:10375000B04225D0BF49884222D0BF4988421FD0FD
:10376000B8421DD0BD4988421AD0BD49884217D001
:10377000BC49884214D0BC49884211D0BB49884218
:103780000ED005E054E013E1E8E026E17FE00DE033
:10379000B749884204D09BA040F6987102F0EDF939
:1037A0002068A74A703281681140C6E720688842C5
:1037B0000ED060450CD090420AD0984208D0B0425A
:1037C00006D0B84204D04FF47A618EA002F0D5F949
:1037D0006868484509D040B1022806D00A2804D0BC
:1037E00088A040F6A17102F0C8F9A86850B1504510
:1037F00008D0584506D0404504D082A040F6A271BA
:1038000002F0BBF9E8680F2804D97EA040F6A37146
:1038100002F0B3F9EB682068D5E9012101F090FCD2
:103820002168874A8868104040F0770088605EE031
:10383000206888420ED060450CD090420AD0984251
:1038400008D0B04206D0B84204D06EA040F6C7718E
:1038500002F093F96868484509D040B1022806D0C3
:103860000A2804D067A040F6CA7102F086F9E86819
:103870000F2804D963A040F6CB7102F07EF9EA6804
:103880006968206801F016FE206850212DE020684C
:1038900088420ED060450CD090420AD0984208D0A1
:1038A000B04206D0B84204D056A040F6D57102F01E
:1038B00064F96868484509D040B1022806D00A2852
:1038C00004D050A040F6D87102F057F9E8680F28EC
:1038D00004D94CA040F6D97102F04FF9EA68696842
:1038E000206801F0F8FD2068602101F032FC012021
:1038F00084F83D00002184F83C100846CEE620689C
:1039000088420ED060450CD090420AD0984208D030
:10391000B04206D0B84204D03AA040F6E37102F0BB
:103920002CF96868484509D040B1022806D00A2819
:1039300004D034A040F6E57102F01FF9E8680F28C2
:1039400004D930A040F6E67102F017F9EA68696818
:10395000206801F0AFFD20684021C6E7206888425A
:103960000ED060450CD090420AD0984208D0B042A8
:1039700006D0B84204D04FF47F6122A002F0FDF8D7
:1039800020680021B1E7206888420ED060450CD045
:1039900090420AD0984208D0B04206D0B84204D033
:1039A00018A040F6F67102F0E8F8206810219CE7B4
:1039B000206888420ED060450CD090420AD09842D0
:1039C00008D0B04206D0B84204D00EA040F6FC7138
:1039D00002F0D3F82068202187E7206888420ED0C3
:1039E00060450CD090420AD0984208D0B04206D030
:1039F000B84204D003A041F2020102F0BEF82068F0
:103A0000302172E72E2E2F447269766572732F5320
:103A1000544D3332463778785F48414C5F44726981
:103A20007665722F5372632F73746D3332663778F5
:103A3000785F68616C5F74696D2E630000000140FF
:103A400088FFFEFF0004004000080040000C00401A
:103A500000040140001000400014004000400140FC
:103A6000004401400048014000180040001C004094
:103A700000200040704770B50446006800250169C9
:103A8000C943890715D4C168C943890711D4EA1EFF
:103A9000026101212177206880698007204602D0D9
:103AA000FFF7E8FF04E000F0D3F8204600F02AFB1F
:103AB000257720680169C943490717D4C168C943FC
:103AC000490713D402216FF00402026121772068B4
:103AD000806910F4407F204602D0FFF7CBFF04E05E
:103AE00000F0B6F8204600F00DFB2577206801694C
:103AF000C943090716D4C168C943090712D4042170
:103B00006FF00802026121772068C06980072046B3
:103B100002D0FFF7AFFF04E000F09AF8204600F073
:103B2000F1FA257720680169C943C90617D4C1682D
:103B3000C943C90613D408216FF01002026121772E
:103B40002068C06910F4407F204602D0FFF792FF42
:103B500004E000F07DF8204600F0D4FA25772068D4
:103B60000169C943C90708D1C168C943C90704D15C
:103B7000891E0161204600F0C6FA20686FF08005BA
:103B80000169C943090607D4C168C943090603D4BA
:103B900005612046FFF719FB20680169C943C90583
:103BA00007D4C168C943090603D405612046FFF75D
:103BB0000CFB20680169C943490609D4C168C9439F
:103BC000490605D46FF040010161204600F0A2FAD9
:103BD00020680169C94389060BD4C168C9438906B5
:103BE00007D46FF0200101612046BDE87040FFF767
:103BF000EDBA70BD0246134830B5114C0021126871
:103C0000022385B0A24206D180220092CDE9013183
:103C1000CDE9031305E00C4D0324AA4206D1921509
:103C200008E06946FDF7F6FE05B030BD074DAA4233
:103C3000FAD152150092CDE90131CDE90314F0E734
:103C400000080040000402400044014000480140D8
:103C5000704700002DE9F05F5FEA020A0D46044656
:103C600016D0BAF1040F13D0BAF1080F10D0BAF180
:103C70000C0F0DD0BAF1100F0AD0BAF1140F07D003
:103C8000BAF13C0F04D0A8A040F6FA0101F075FF8C
:103C90002868602816D0702814D0A0F580314039EB
:103CA00010D0A0F5803150390CD0A0F580316039AA
:103CB00008D0A0F58031703904D09BA040F6FB01FC
:103CC00001F05BFFA86830B1022804D096A040F64E
:103CD000FC0101F052FF286930B1042804D092A001
:103CE00040F6FD0101F049FF94F83C0001281FD087
:103CF00002204FF0010B84F83CB0BAF10C0F84F8AD
:103D00003D004FF080489749974E984FDFF860C2CA
:103D1000984B77D00FDCDFF86092BAF1000F974A2A
:103D200010D0BAF1040F42D0BAF1080F69D16AE09D
:103D30000220BDE8F09FBAF1100F7DD0BAF1140F48
:103D4000F4D1CBE0206888421ED040451CD0B04260
:103D50001AD0B84218D0604516D0984214D04845C1
:103D600012D0874988420FD0864988420CD09042B1
:103D70000AD08549884207D08449884204D06AA085
:103D800040F6091101F0F9FE2068294601F0EAF930
:103D90002068816941F0080181612068816921F012
:103DA0000401816120682A698169114328E0206843
:103DB000884212D0404510D0B0420ED0B8420CD04C
:103DC00060450AD0984208D0484506D0904204D0B9
:103DD00055A040F61A1101F0D0FE2068294601F0E6
:103DE000F5F92068816941F4006181612068816989
:103DF00021F48061816120682969826942EA012198
:103E0000816189E026E0206888420ED040450CD0D0
:103E1000B0420AD0B84208D0604506D0984204D0DB
:103E200041A040F62B1101F0A8FE2068294601F0C0
:103E30002FFA2068C16900E033E041F00801C16158
:103E40002068C16921F00401C16120682A69C16943
:103E5000114324E0206888420ED040450CD0B04287
:103E60000AD0B84208D0604506D0984204D02EA0AF
:103E700040F63C1101F081FE2068294601F06AFA03
:103E80002068C16941F40061C1612068C16921F401
:103E90008061C16120682969C26942EA0121C1616A
:103EA0003AE02068884206D0984204D01EA040F62E
:103EB0004D1101F062FE2068294601F0A3FA206846
:103EC000416D41F0080141652068416D21F0040118
:103ED000416520682A69416D11431CE020688842D1
:103EE00006D0984204D010A040F65E1101F045FEC5
:103EF0002068294601F0B2FA2068416D41F4006162
:103F000041652068416D21F480614165206829691F
:103F1000426D42EA01214165002184F83DB0084626
:103F200084F83C1005E700002E2E2F447269766558
:103F300072732F53544D3332463778785F48414C73
:103F40005F4472697665722F5372632F73746D3399
:103F500032663778785F68616C5F74696D5F657829
:103F60002E630000000001400004004000080040F3
:103F7000000C0040000401400040014000180040D7
:103F80000044014000480140001C00400020004067
:103F900010B5040058D03648226882422BD0B2F1C6
:103FA000804F28D03348824225D03348824222D0E5
:103FB000324882421FD0324882421CD0314882426D
:103FC00019D03148824216D03048824213D030484E
:103FD000824210D02F4882420DD02F4882420AD010
:103FE0002E48824207D02E48824204D04FF47D7181
:103FF0002CA001F0C2FDA06860B110280AD02028D2
:1040000008D0402806D0602804D026A040F2F53120
:1040100001F0B3FD206950B1B0F5807F07D0B0F555
:10402000007F04D01FA040F2F63101F0A6FDA06988
:1040300030B1802804D01BA040F2F73101F09DFD83
:1040400094F83D0010B107E0012010BD002084F875
:104050003C00204600F042F8022084F83D00206831
:10406000211D00F08BFF012084F83D00002010BDD1
:10407000000001400004004000080040000C004027
:1040800000100040001400400004014000400140C6
:10409000004401400048014000180040001C00405E
:1040A000002000402E2E2F447269766572732F53C4
:1040B000544D3332463778785F48414C5F447269DB
:1040C0007665722F5372632F73746D33326637784F
:1040D000785F68616C5F74696D2E630008B5006875
:1040E0000649884208D10648016841F00401016090
:1040F000006800F00400009008BD000000080040C7
:104100004038024070470068B0F1804F01D1FDF7A0
:10411000B7BE70477047FEE72DE9FF4101253A48D9
:10412000384900242A040726C0E90012846005618A
:1041300036490462C0E90A14C460C0E90656056342
:104140004461FCF74DFD18B1582131A001F005FD87
:10415000022700972C486946CDE90154FCF726FC5C
:1041600018B162212AA001F0F8FC06242648CDE906
:1041700000476946FCF71AFC18B16B2124A001F036
:10418000ECFC03206946CDE900601F48FCF70EFCFB
:1041900018B174211EA001F0E0FC04210E20CDE92D
:1041A000000119486946FCF701FC18B17D2118A0EF
:1041B00001F0D3FC05210F20CDE90001124869462A
:1041C000FCF7F4FB18B1862111A001F0C6FC082011
:1041D0006946CDE900040C48FCF7E8FB18B18F21D3
:1041E0000BA001F0BAFC09206946CDE9000606489B
:1041F000FCF7DCFB002803D0982105A001F0ADFC02
:10420000BDE8FF8100200140304000200100000F88
:104210002E2E2F5372632F6164632E630000000003
:104220007FB51648002501241349220401600B05BF
:10423000C0E9012585614FF0E0610562C0E90354E2
:104240004561C461283080E81A002838FCF7C8FCB2
:1042500018B1B1210AA001F080FC0094694607481A
:10426000CDE90145FCF7A2FB002803D0BB2104A047
:1042700001F073FC7FBD0000002101407840002068
:104280002E2E2F5372632F6164632E630000000093
:104290007FB529480125274900242A040426016006
:1042A000C90442604FF0506284608461C0E90764D1
:1042B000C0E9034505634461C0E90A21FCF790FCAD
:1042C00018B1D4211DA001F048FC0A206946CDE9AF
:1042D000000519480294FCF769FB18B1DE2117A00C
:1042E00001F03BFC02210B20CDE900011248694698
:1042F000FCF75CFB18B1E72110A001F02EFC0321B4
:104300000C20CDE900010C486946FCF74FFB18B1C1
:10431000F0210AA001F021FC0D206946CDE900063C
:104320000548FCF743FB002803D0F92103A001F066
:1043300014FC7FBD00220140C04000202E2E2F53D0
:1043400072632F6164632E630000000013491CB583
:10435000114808600846FCF723FF18B1472110A058
:1043600001F0FBFB00200090019002460B486946DB
:10437000FCF7AEFE18B1502109A001F0EEFB074892
:1043800010226946FCF7A4FE002803D0572104A0A0
:1043900001F0E3FB1CBD000000740040B83D0020AC
:1043A0002E2E2F5372632F6461632E630000000072
:1043B000194808B5016841F48001016000680022D5
:1043C000052100F4800000903820FDF703FE38201E
:1043D000FDF7D0FD002205213920FDF7FBFD392036
:1043E000FDF7C8FD002205213A20FDF7F3FD3A2034
:1043F000FDF7C0FD002205213B20FDF7EBFD3B2032
:10440000FDF7B8FD002205213C20FDF7E3FDBDE8E6
:1044100008403C20FDF7AEBD303802404049402006
:1044200010B50860FF220021104601F0E7FC3D496D
:10443000002088800146082001F0F4FC00210C20B7
:1044400001F0F0FC0A2041F6FE1101F0EBFC042023
:1044500041F6FF1101F0E6FC062041F6FF7101F084
:10446000E1FCB121382001F09FFC282043F23F01FC
:1044700001F0D8FC30204FF2F97101F0D3FC0D218E
:10448000C02001F091FC0021C12001F08DFC3222FE
:10449000C221802001F0B2FCC62040F6124101F09A
:1044A000C1FC1221C42001F07FFCCA2040F2DC5183
:1044B00001F0B8FC1C4CE420217801F075FC617817
:1044C000E52001F071FCA178E22001F06DFCE178BB
:1044D000E32001F069FC2179E02001F065FC6179BD
:1044E000E12001F061FC10204FF4807101F0D4FB59
:1044F0001F2001F041FCC0221B21802001F07EFC26
:1045000004221F21802001F079FC0221752001F096
:104510004BFCBDE81040142043F2764101F0BCBBD7
:1045200018040240680000207A0000200A484FF07A
:10453000C00CF0B580F800C0A827011D4770002509
:104540008570DF26C670AA220A7007234B70852467
:104550008C70CA70F0BD0000760000201B4842F24B
:10456000107CF0B5C825058041F65836468041F2EA
:1045700088378780A0F806C047F23053038168254A
:1045800043814FF4807685819627C6814FF4AF7CB6
:1045900007824FF03C0EA0F812C01E24A0F814E0D1
:1045A0003221C4824B23018341F27075438364221C
:1045B00085836E00C6830523018442848184C2847E
:1045C000018542858485C385F0BD000044770220C3
:1045D00010B5FFF7ABFF08490868401C08D0074A30
:1045E0000020431C445C1454D8B20428F9D310BDF5
:1045F000BDE8104000F01EB8000001087600002061
:1046000010B5FFF7ABFF09490868401C0AD0084BFA
:104610000020421C31F8104023F81040D0B2182876
:10462000F7D310BDBDE8104000F020B800800108AD
:104630004477022070B5FDF7D9F902210846FBF74F
:10464000D9FF084D0024084E00231846A1192A5D01
:10465000FDF762F9641CE4B2042CF5D3BDE87040A8
:10466000FDF750B9760000200000010870B5FDF795
:10467000BDF902210320FBF7BDFF094D0024094EBF
:104680000023012006EB440135F81420FDF744F91E
:10469000641CE4B2182CF3D3BDE87040FDF732B9C6
:1046A000447702200080010810B58AB00B4914221B
:1046B0006846FBF703FE0021684601F093FD084CB5
:1046C000142206491431206005A8FBF7F7FD0021EC
:1046D00005A801F087FD60600AB010BD0C6D0008F0
:1046E000600000202DE9F04F6E4887B0016841F06E
:1046F00010010160016801F010010591016841F0AD
:1047000004010160016801F004010591016841F0B4
:1047100080010160016801F080010591016841F0AC
:1047200001010160016801F001010591016841F09A
:1047300002010160016801F002010591016841F088
:1047400008010160006844F24006DFF85CB1002215
:1047500000F00800314605905846FDF755FB4FF430
:104760001157524800223946FDF74EFB49F20E38E8
:104770004F4800224146FDF747FB4FF480794D48F2
:1047800000224946FDF740FB4FF4007A4A480022D8
:104790005146FDF739FB03254BF6A7700024694607
:1047A0000294CDE900055846FDF734F91820694612
:1047B000CDE9000458460294FDF72CF90096012635
:1047C000CDE90164694658460394FDF723F94FF497
:1047D00072506946CDE9000536480294FDF71AF992
:1047E00040F209406946CDE9000433480294FDF7E0
:1047F00011F949F604006946CDE900052B480294F9
:10480000FDF708F900976946CDE90164274803944C
:10481000FDF700F9B0036946CDE90004234802948E
:10482000FDF7F8F8CDF800806946CDE9016420482D
:104830000394FDF7EFF81E486946CDE90074029431
:10484000FDF7E8F844F6B1006946CDE900051848DF
:104850000294FDF7DFF84FF410706946CDE90004CB
:1048600014480294FDF7D6F8CDF800906946CDE9DA
:10487000016410480394FDF7CDF84FF419406946E0
:10488000CDE900050C480294FDF7C4F8CDF800A06E
:104890006946CDE9016408480394FDF7BBF807B009
:1048A000BDE8F08F303802400010024000040240A2
:1048B000000C0240000802400000024070B513489E
:1048C0004FF4E064104E002100F1140C0823C0E9FD
:1048D0000214721501618CE80E0007240162416226
:1048E0004FF48275C0E90A1401634163C0E90065B1
:1048F000FEF748F8002805D0BDE87040542104A018
:1049000001F02BB970BD000000300140CC3D00200B
:104910002E2E2F5372632F7370692E6300000000D8
:10492000174A184810B50024111588B0C0E90024B2
:10493000C0E9024104618461FEF712FD18B1A821AB
:1049400011A001F00AF90F48FFF722FB18B1AD21C1
:104950000DA001F002F960206946CDE90004094884
:10496000002202940494FFF775F918B1B62106A04D
:1049700001F0F3F80348FFF73DF908B010BD00005F
:1049800000440140B03F00202E2E2F5372632F743D
:10499000696D2E6300000000174A184810B5002406
:1049A000111588B0C0E90024C0E9024104618461A6
:1049B000FEF7D6FC18B1C92111A001F0CEF80F48BE
:1049C000FFF7E6FA18B1CE210DA001F0C6F860207D
:1049D0006946CDE900040948002202940494FFF7D7
:1049E00039F918B1D72106A001F0B7F80348FFF74D
:1049F00001F908B010BD000000480140F03F002060
:104A00002E2E2F5372632F74696D2E6300000000E9
:104A1000184A194810B5002411158AB0C0E90024BD
:104A2000C0E9024104618461FFF7B2FA18B14D2177
:104A300012A001F092F8104807A907940994FEF714
:104A4000C7FB18B154210DA001F087F8602069461A
:104A5000CDE900040848042202940494FFF7FAF810
:104A600018B15D2105A001F078F80348FFF7C2F8FE
:104A70000AB010BD00080040F03E00202E2E2F533B
:104A800072632F74696D2E63000000003EB51048FC
:104A90000024D8210D4AC0E90024C0E90241846104
:104AA000FEF75EFC18B16F210AA001F056F8202035
:104AB0000090074869460294FEF78AFB002803D05D
:104AC000762104A001F049F83EBD0000001000402E
:104AD000303F00202E2E2F5372632F74696D2E638A
:104AE000000000001848D82210B50024154988B0ED
:104AF000C0E90014C0E90242046144618461FEF728
:104B00002FFC18B1892111A001F027F84FF4805033
:104B100003900D4803A9FEF775FD18B18F210BA076
:104B200001F01BF8202001048DE8130006486946B7
:104B3000FEF74EFB002803D0972104A001F00DF8EA
:104B400008B010BD00040140703F00202E2E2F53EE
:104B500072632F74696D2E6300000000FEE77047DA
:104B6000090700284FEA116106DA00F00F0000F192
:104B7000E02080F8141D704700F1E02080F8001458
:104B8000704710B5806B012201684B6823F0030366
:104B90004B60016E41F01001016680F85D20FDF769
:104BA000ECFE10BD10B5806BFEF78FF810BD10B590
:104BB000806BFEF7C4FA10BD70B5846B0546FDF737
:104BC00059F9024628680068C0051CD4206841686D
:104BD00021F0200141602068416821F0030141601B
:104BE0006421204600F041F808B120202066002111
:104BF000A4F84610012084F85D00206E18B120460C
:104C0000FDF7BBFE70BD2046FEF75EF870BD70B5C7
:104C1000846B0546FDF72EF9024628680068C0053A
:104C20001FD42068416821F02001416064212046A2
:104C300000F055F818B1206E40F020002066206882
:104C400000210122436823F003034360E187A4F8B5
:104C5000461084F85D20206E18B12046FDF78DFEC9
:104C600070BD2046FEF76AFA70BD2DE9F843044690
:104C700040684FF482761546B04289464FF40047AB
:104C80004FF4806809D1A068B84201D0404504D1F2
:104C90002068016821F04001016000224B4680211C
:104CA0002046009500F08FF880B96068B04214D1BA
:104CB000A068B84201D040450FD100224B464FF4C6
:104CC000C0612046009500F02EF830B1206E40F013
:104CD000200020660320BDE8F8830020FBE7F8B53C
:104CE00015460E4604460B464FF4C0510092002272
:104CF00000F019F888B9002233468021204600953B
:104D000000F061F848B9002233464FF4C0612046F4
:104D1000009500F008F8002804D0206E40F0200034
:104D200020660320F8BD2DE9F8434FF4C0681D4606
:104D300017460E46DDF8209004463DE0464505D175
:104D400027B9007B8DF800009DF80000681C33D067
:104D50002DB1FDF78FF8A0EB0900A8422CD32068F5
:104D6000416821F0E00141606068B0F5827F0BD1BD
:104D7000A068B0F5004F02D0B0F5806F04D1206874
:104D8000016821F040010160A06AB0F5005F0AD11E
:104D900020684DF6FF7201681140016020680168CB
:104DA00041F400510160012184F85D10002084F875
:104DB0005C000320BDE8F883206881683140B94277
:104DC000BCD10020F6E72DE9F0411D4616460F46FE
:104DD0000446DDF8188035E0681C33D02DB1FDF7AE
:104DE00049F8A0EB0800A8422CD32068416821F0C4
:104DF000E00141606068B0F5827F0BD1A068B0F53A
:104E0000004F02D0B0F5806F04D12068016821F016
:104E100040010160A06AB0F5005F0AD120684DF63C
:104E2000FF720168114001602068016841F400517F
:104E30000160012184F85D10002084F85C000320EB
:104E4000BDE8F081206880683840B042C4D10020BD
:104E5000F6E700F033FD00F05FFC012001F0ACF953
:104E6000F9E740F24D1400F049FB204601F0A4F9A7
:104E7000F9E701F0ADB90000264830B593B00168FC
:104E800041F080510160006800F08050119022488C
:104E9000016841F440410160006802240423089342
:104EA00000F4404011900120D82582050104CDE98D
:104EB0000642CDE909540B94CDE900016846FDF79F
:104EC0000FFB00B1FEE7FDF713F900B1FEE70EADF1
:104ED00000214FF4A0524FF4805385E80E000F20BC
:104EE000CDE90C0407210CA8FDF738F900B1FEE765
:104EF000FDF798FA4FF47A71B0FBF1F0FEF752F932
:104F00000420FEF71DF900220F21501EFDF762F864
:104F100013B030BD4038024000700040104A30B538
:104F20001048146800210F4B44F4700414600833D7
:104F300005680D4A0D4C45F00105056019600368D0
:104F4000051D1340074A03600C322C600568E30519
:104F5000034C25F480250560803C1160236030BD42
:104F600088ED00E000380240FFFFF6FE103000241C
:104F70000148FEF780BD0000783D0020F0B5274BCA
:104F80004FF0804E264D02689842264E264F274C01
:104F900009D0704507D0A84205D0B04203D0B8422E
:104FA00001D0A04205D1D1F804C022F070024CEA31
:104FB000020298421BD0704519D0A84217D0B042C7
:104FC00015D0B84213D0A04211D0194DA8420ED02E
:104FD000184DA8420BD0184DA84208D0174DA84232
:104FE00005D0174DA84202D0164DA84203D1CD6876
:104FF00022F440722A434D6922F080022A43026063
:1050000098428A68C2620A68826201D0A04201D1D5
:105010000969016301214161F0BD00000000014008
:105020000004004000080040000C00400004014063
:105030000040014000440140004801400018004089
:10504000001C00400020004070B50446234816466E
:105050000D46844225D0B4F1804F22D020488442AE
:105060001FD0204884421CD01F48844219D01F48BA
:10507000844216D01E48844213D01E48844210D069
:105080001D4884420DD01D4884420AD01C488442E9
:1050900007D01C48844204D01BA041F2855100F087
:1050A0006CFD85B1042D0ED0082D0CD00C2D0AD02E
:1050B000102D08D0142D06D03C2D04D012A041F2A2
:1050C000865100F05AFD216A0120AE40A84081437C
:1050D0002162206A3043206270BD00000000014060
:1050E0000004004000080040000C004000040140A3
:1050F00000400140004401400048014000180040C9
:10510000001C0040002000402E2E2F44726976655E
:1051100072732F53544D3332463778785F48414C81
:105120005F4472697665722F5372632F73746D33A7
:1051300032663778785F68616C5F74696D2E6300E2
:1051400042EA032283680A4323F47F410A438260D0
:105150007047826822F070020A4342F007018160C2
:1051600070470000F0B5026A164B154F22F001029D
:1051700098420262066A4268846926F002068B68D9
:105180000D6804EA070424F0030443EA060345EA31
:10519000040502D00C4CA0420BD1CC6822F440771D
:1051A000D1E9056223F008031C433E43324324F057
:1051B000040342608561496841630362F0BD0000F9
:1051C0008FFFFEFF00000140000401402DE9F04187
:1051D0000446006A0D461E491C4E20F010008C4209
:1051E0002062216A6768A06921F02001AB682A6803
:1051F00000EA060020F4407041EA031640EA022863
:1052000002D01448844219D1E86830B1082804D08B
:1052100011A041F20A3100F0B0FC27F48060EF6881
:10522000D5E9052326F0800120F4006041EA07114A
:1052300040EA820021F0400640EA83076760C4F834
:1052400018806868A0632662BDE8F081FF8FFFFECA
:1052500000000140000401402E2E2F447269766543
:1052600072732F53544D3332463778785F48414C30
:105270005F4472697665722F5372632F73746D3356
:1052800032663778785F68616C5F74696D2E630091
:105290002DE9F0410446006A0D461E491C4E20F4DB
:1052A00080708C422062226A6768E06922F4007292
:1052B000AB6800EA0600296820F0030042EA0326F2
:1052C00041EA000802D01448844218D1E86830B19D
:1052D000082804D011A041F24C3100F04EFC27F414
:1052E0004051D5F80CC0D5E9053726F4006242EAF2
:1052F0000C2041EA031120F4806641EA0717676039
:10530000C4F81C806868E0632662BDE8F081000094
:105310008FFFFEFF00000140000401402E2E2F44AD
:105320007269766572732F53544D333246377878ED
:105330005F48414C5F4472697665722F5372632FE8
:1053400073746D3332663778785F68616C5F746947
:105350006D2E63002DE9F0410446006A0D4619499F
:10536000174F20F480508C422062216A6668E06901
:1053700021F40051AB682A6800EA070020F440706D
:1053800041EA033840EA022702D00F4884420ED196
:105390006869B0F5807F05D020B10CA041F2903152
:1053A00000F0EBFB696926F4804040EA81166660F4
:1053B000E76168682064C4F82080BDE8F0810000DF
:1053C000FF8FFFFE00000140000401402E2E2F44FD
:1053D0007269766572732F53544D3332463778783D
:1053E0005F48414C5F4472697665722F5372632F38
:1053F00073746D3332663778785F68616C5F746997
:105400006D2E6300F0B5026ADFF844C022F48032EA
:105410000262056A4268446D25F400350E896045D4
:105420000C4F0B6804EA070445EA064543EA040307
:1054300002D0094CA04204D14C6922F4803242EAE5
:10544000042242604365496881650562F0BD000041
:10545000000001408FFFFEFF00040140F0B5026A2A
:10546000DFF844C022F480120262046A4268436D8D
:1054700024F400140E8960450C4F0D6803EA0703FD
:1054800044EA065443EA052302D0094DA84204D158
:105490004D6922F4802242EA8522426043654968D0
:1054A000C1650462F0BD000000000140FF8FFFFEF7
:1054B0000004014010B5036A046A23F00A0324F0D3
:1054C0000104046284690B4324F0F00141EA0211F3
:1054D0008161036210BD10B5036A23F010030362FB
:1054E0008369046A23F4704324F0A00443EA02327F
:1054F000826144EA0111016210BD0000F0B5124B57
:1055000000274FF00A0C3846A3F11C0202F10E04EA
:105510005FF0000122F81070C1EBC1052E1832F8BF
:105520001050491CC9B233F816600A29354422F8D4
:105530001050F1D3ADB2B5FBFCF5411C24F810506E
:10554000C8B20728E4D3F0BDD8530020054901F2C2
:10555000DC5091F83620027091F8381081700320E9
:1055600000F06EB9044800200848094990F8362038
:1055700000F2DC5002700A7882704A78C2708A7831
:105580000271C9784171062000F05AB90448002020
:10559000760000200B480C4930B401F2EA5490F830
:1055A000360008700020451C01EB400334F8102041
:1055B000E8B2150A9D700728DA70F4D330BC1020C9
:1055C00000F03EB904480020E04D00200B480C4993
:1055D00030B40C4C90F8360008700020451C01EBEC
:1055E000400334F81020E8B2150A9D701828DA70CC
:1055F000F4D330BC322000F023B90000044800206E
:10560000E04D002044770220114970B501F2DC50D2
:10561000104C91F8362002704FF0010291F83810CA
:105620008170012911D0550220462946FCF7ECFB78
:10563000212000F0C1FD002229462046FCF7E4FBB2
:10564000BDE87040032000F0FBB84FF48075EBE735
:1056500004480020000C0240054901F2DC5091F89A
:105660003620027091F838108170032000F0E8B8FD
:105670000448002010B5FEF771FFFEF7F7FFBDE804
:105680001040FFF7A3BF000070B50B4900200B4C82
:10569000431C01EB400292F8395092F8382005EB98
:1056A000022224F81020D8B21828F1D3FEF7DEFF2A
:1056B000BDE87040FFF78ABF04480020447702200D
:1056C0000C4B4FF4806110B503F2DC520A4893F89A
:1056D0003640147093F838309370012B07D00022B5
:1056E000FCF792FBBDE81040032000F0A9B80122AE
:1056F000F6E700000448002000040240054901F2DA
:10570000DC5091F83620027091F838108170032037
:1057100000F096B80448002070B53F4C6078401CFB
:10572000C0B26070FF2821D10025657020780E215D
:105730003A4E2A46401C20703046FCF765FB207824
:10574000012804D0022805D003280FD108E0012247
:10575000022101E0012204213046FCF755FB05E05F
:10576000012230460821FCF74FFB257040F2DC5047
:105770002B4900F01FFA01004DD0294800F04AFDE6
:10578000010048D02648362200F04CF8244991F810
:10579000372090423FD191F836005F282BD012DCA1
:1057A0002F2820D007DC0F2819D01F2833D1BDE8BF
:1057B0007040FFF7EFBE3F2819D04F282BD1BDE82E
:1057C0007040FFF757BF6F2819D07F281BD08F2854
:1057D0001DD09F281FD1BDE87040FFF7B7BEBDE8C0
:1057E0007040FFF7C1BEBDE87040FFF7EFBEBDE8F7
:1057F0007040FFF749BFBDE87040FFF705BFBDE847
:105800007040FFF75DBFBDE87040FFF725BFBDE802
:105810007040FFF773BF70BD74000020000C0240A1
:1058200004480020114410B5835C921C03E0845CA2
:105830006340521C92B29142F9D88033D8B210BD65
:1058400010B50022044601460748FFF7EBFF064962
:1058500022464870A1F2DC5000F074FFBDE8104011
:105860000146024800F074BFE04D002004480020CB
:105870000F4800224021FCF7C7FA0E4841F21112EE
:105880000068016A114207D1016A9210114203D1E6
:10589000016821F001010160074C40F24D150E2115
:1058A0002046FCF785FA284600F086FCF7E7000062
:1058B00000100240F03F0020000C02402DE9F05F94
:1058C00040F24D14204600F077FC964E0022402115
:1058D0003046FCF799FA212000F06EFC0821304692
:1058E000FCF73AFA08B101205DE001223046402180
:1058F000FCF78AFA212000F05FFC08213046FCF713
:105900002BFAE8B3DFF820B2012202215846FCF757
:105910007BFAA246204600F04FFC844C0122002175
:105920002068FFF791FB20684FF6FF75DFF80092C3
:10593000DFF8FC8109F10809426C42F4004242643C
:10594000C8F80050C9F80050016841F00101016039
:10595000212000F031FC73481021FCF7FDF930B331
:10596000206841F21116B710016A314206D1016A6E
:10597000394203D1016821F001010160002100E0FA
:1059800013E0C8F80050C9F800102068016841F021
:1059900001010160212000F00FFC62481021FCF79A
:1059A000DBF930B10420FFF763FF0220FBE703209F
:1059B000F9E72068016A314206D1016A394203D110
:1059C000016821F00101016001225C460421584672
:1059D000FCF71AFA5546504600F0EEFB00235548F6
:1059E0001A461946FBF736FC52480021FBF77CFCAF
:1059F000212000F0E1FB00234E4810211A46FBF75E
:105A000029FC4C481021FBF76FFC212000F0D4FB4F
:105A1000012220460821FCF7F7F9284600F0CCFBCC
:105A2000454907224548FBF79FFA4549086802683F
:105A300022F0080202600868026822F01002026088
:105A40000868026822F0040202600868026822F016
:105A5000020202600868416921F080014161212051
:105A600000F0AAFB344943F2B06236488C31FBF7B0
:105A70007BFA35490868026822F00802026008686B
:105A8000026822F0100202600868026822F0040234
:105A900002600868026822F0020202600868416938
:105AA00021F080014161212000F086FB27494DF65D
:105AB000C0222748FBF758FA264801680A6822F0F6
:105AC00008020A6001680A6822F010020A60016890
:105AD0000A6822F004020A6001680A6822F00202E1
